:020000002028B6
:0E0006008312031333088A00320882000800B8
:1000140003208A110A128000840AB20A0319B30A5F
:08002400F003031D0A28080087
:10002C0083120313F1013C30710203181F28F10AEB
:04003C001928080077
:10004000803083120313A0004030A1002030A200B2
:100050001030A3000830A4000430A5000230A60030
:100060000130A7007E30A8008130A9008130AA00AD
:100070008530AB004630AC00AD01AE01AF01B00140
:10008000B1018316870188018312B501B601B7015A
:10009000B4010530340203186E28B6010830360268
:1000A000031865283608203E8400000888003508BB
:1000B000283E8400000887001620B50A35080A3A51
:1000C000031D6328B501B60A4E283708B500370866
:1000D0000A3A031D6C28B701B40A4928B70A370841
:0600E000B500482872285B
:00000001FF
